:020000040800F2
:10000000F8060020890100087D0A0008530700084F
:1000100089090008C30200082B2B0008000000001B
:10002000000000000000000000000000B91F0008F0
:1000300061030008000000006B1900082524000877
:10004000A3010008A3010008A3010008A301000800
:10005000A3010008A3010008A3010008A3010008F0
:10006000A3010008A3010008A3010008A3010008E0
:10007000A3010008A3010008A3010008A3010008D0
:10008000A3010008A3010008A3010008A3010008C0
:10009000A3010008A3010008A3010008A3010008B0
:1000A000A3010008A3010008A3010008A3010008A0
:1000B000A301000899240008A3010008A301000877
:1000C000A3010008A3010008A3010008A301000880
:1000D000A3010008F1280008A3010008A3010008FB
:1000E000A3010008A3010008A301000800F002F822
:1000F00000F03AF80AA090E8000C82448344AAF188
:100100000107DA4501D100F02FF8AFF2090EBAE885
:100110000F0013F0010F18BFFB1A43F0010318473B
:10012000203F0000403F0000103A24BF78C878C14B
:10013000FAD8520724BF30C830C144BF04680C60ED
:10014000704700000023002400250026103A28BF35
:1001500078C1FBD8520728BF30C148BF0B60704739
:100160001FB51FBD10B510BD00F071F81146FFF7A7
:10017000F7FF02F043FE00F08FF803B4FFF7F2FF41
:1001800003BC00F097F80000094880470948004781
:10019000FEE7FEE7FEE7FEE7FEE7FEE7FEE7FEE737
:1001A000FEE7FEE704480549054A064B7047000094
:1001B00029240008ED000008F8000020F8060020BF
:1001C000F8020020F80200204FF0013C50F8042B08
:1001D00051F8043B9A4221D1A2EB0C03934313EA5A
:1001E000CC1317D150F8042B51F8043B9A4215D187
:1001F000A2EB0C03934313EACC130BD150F8042B5E
:1002000051F8043B9A4209D1A2EB0C03934313EA41
:10021000CC13DBD04FF00000704700BFD01A01BAFA
:10022000B1FA81F101F0180122FA01F0CB40C1F1DD
:100230002001DBB2C0B2C01A2CFA01F3D11A9143EB
:1002400011EAC311E6D17047704770477047754691
:1002500000F02CF8AE4605006946534620F0070032
:10026000854618B020B5FFF79DFFBDE820404FF050
:1002700000064FF000074FF000084FF0000B21F090
:100280000701AC46ACE8C009ACE8C009ACE8C0095D
:10029000ACE8C0098D46704710B50446AFF3008046
:1002A0002046BDE81040FFF768BF000000487047D7
:1002B0009400002001491820ABBEFEE72600020092
:1002C000704700BFFEE7000008B50121082001F0DB
:1002D0005DFB10208DF803004020ADF800000320E6
:1002E0008DF802006946044800F096F94021024862
:1002F00000F026FA08BD0000000C014010B54021B6
:10030000014800F01DFA10BD000C014010B540215D
:10031000014800F017FA10BD000C014010B5FFF7BE
:10032000F5FF642000F01DF8FFF7E8FF642000F0FF
:1003300018F810BD10B5FFF7E9FF642000F011F8C0
:10034000FFF7DCFF642000F00CF8FFF7DFFF64200C
:1003500000F007F8FFF7D2FF642000F002F810BDAC
:10036000704700B5034603E04FF47A7000F005F8DB
:10037000181EA3F10103F7D100BD00EBC001C900B5
:100380004FF0E0225161002191610521116100BF10
:100390004FF0E021096901F480310029F8D00421EF
:1003A0004FF0E0221161704710B500F075F8324847
:1003B0000078012816D100F0BBFB002001F0B5FA4F
:1003C0002EA20621032000F01DFD2CA209210320EE
:1003D00000F018FD00F02AFD29A20721032000F0FB
:1003E00011FD47E02448007802280CD100F0A0FB62
:1003F000192001F09AFA00F019FD22A2072103202A
:1004000000F000FD36E01C48007803280CD100F015
:100410008FFB322001F089FA00F008FD1AA20721B3
:10042000032000F0EFFC25E013480078042811D1E8
:1004300000F07EFB4B2001F078FA10A20621032089
:1004400000F0E0FC00F0F2FC10A20721032000F015
:10045000D9FC0FE00848007805280BD100F068FBB4
:10046000642001F062FA00F0E1FC09A206210320F9
:1004700000F0C8FC10BD00001F000020200000009C
:100480003025000032352500353025003735250070
:10049000313030250000000011480078012805D1D6
:1004A00010480078401E0F49087017E00E48007889
:1004B000012805D10B480078401C0A4908700DE05E
:1004C00008480078062803D101200649087005E095
:1004D0000448007810B905200249087070470000F0
:1004E0001B0000201F0000201C00002010B501F0A0
:1004F00021FD0446FFF7D0FF3E48007801281BD1BC
:1005000000F016FB00203C490870084601782046A0
:1005100001F042FB39A20621032000F073FC37A250
:100520000921032000F06EFC00F004FE34A2072134
:10053000032000F067FC5BE02E480078022811D110
:1005400000F0F6FA19202C49087008460178204678
:1005500001F022FB00F0EEFD2AA20721032000F0AB
:1005600051FC45E023480078032811D100F0E0FA5F
:1005700032202149087008460178204601F00CFB22
:1005800000F0D8FD20A20721032000F03BFC2FE063
:1005900018480078042816D100F0CAFA4B201649F2
:1005A000087008460178204601F0F6FA13A20621E9
:1005B000032000F027FC00F0BDFD14A2072103205A
:1005C00000F020FC14E00B480078052810D100F062
:1005D000AFFA64200849087008460178204601F007
:1005E000DBFA00F0A7FD0AA20621032000F00AFCB6
:1005F00010BD00001F00002021000020200000008E
:1006000030250000323525003530250037352500EE
:1006100031303025000000002DE9F0410246002570
:100620000026002000230024002791F803C00CF0CE
:100630000F0591F803C00CF0100CBCF1000F03D0B3
:1006400091F802C04CEA050591F800C0BCF1000F1A
:1006500031D0146800202BE04FF0010C0CFA00F3AD
:10066000B1F800C00CEA03069E4220D183004FF08F
:100670000F0C0CFA03F7BC4305FA03FC4CEA040424
:1006800091F803C0BCF1280F06D14FF0010C0CFA11
:1006900000FCC2F814C00AE091F803C0BCF1480F96
:1006A00005D14FF0010C0CFA00FCC2F810C0401C40
:1006B0000828D1D31460B1F800C0BCF1FF0F34DDBD
:1006C000546800202EE000F1080C4FF0010808FAF1
:1006D0000CF3B1F800C00CEA03069E4221D183005E
:1006E0004FF00F0C0CFA03F7BC4305FA03FC4CEA7D
:1006F000040491F803C0BCF1280F05D100F1080CE7
:1007000008FA0CF8C2F8148091F803C0BCF1480F45
:1007100007D100F1080C4FF0010808FA0CF8C2F8F4
:100720001080401C0828CED35460BDE8F0810246FA
:10073000002093680B400BB1012000E000207047BF
:1007400041617047016170470AB1016100E0416198
:10075000704700BFFEE7000000200449087004490C
:100760000870044908700449087070471B00002095
:100770001C0000201D0000201E00002008B50121E3
:10078000082001F003F948208DF8030040F60340EB
:10079000ADF8000003208DF8020069460148FFF71C
:1007A0003BFF08BD000C014010B5FFF78DFD4FF475
:1007B00080610F48FFF7BBFFB8B91420FFF7D1FDE8
:1007C000FFF7A4FD1420FFF7CCFDFFF797FD0120F4
:1007D0000849087000BF4FF480610548FFF7A7FF84
:1007E0000028F8D01420FFF7BCFD0248007810BDA7
:1007F000000C01401C00002010B5FFF765FD4FF410
:1008000000611448FFF793FF00BB1420FFF7A9FD18
:10081000002011490870012010490870002010497B
:100820000870FFF773FD1420FFF79BFDFFF766FDCF
:1008300001200C49087000BF4FF400610548FFF724
:1008400076FF0028F8D01420FFF78BFD05480078CC
:1008500010BD0000000C01402C0000202B000020E7
:100860002D0000201E00002010B5FFF72DFD0221F5
:100870001A48FFF75CFF68BB1420FFF772FD1848A9
:100880000078401C1649087008460078042801D1F9
:100890000220087012480078022804D10120114972
:1008A000087011490870012010490870FFF72EFDEB
:1008B0001420FFF756FDFFF721FD01200C490870B9
:1008C00000BF02210548FFF732FF0028F9D01420AD
:1008D000FFF747FD0648007810BD0000000C0140FE
:1008E0002D00002015000020160000202B00002005
:1008F0001D00002010B5FFF7E7FC01210E48FFF7AF
:1009000016FFB0B91420FFF72CFDFFF7FFFC1420F1
:10091000FFF727FDFFF7F2FC01200849087000BF30
:1009200001210548FFF703FF0028F9D01420FFF745
:1009300018FD0248007810BD000C01401B0000208B
:1009400010B5FFF791FFFFF7D5FFFFF72DFFFFF77A
:1009500053FF10BD08B50121042001F017F818203D
:100960008DF803000120ADF8000003208DF802008F
:1009700069460448FFF750FE01210248FFF7E2FEF6
:1009800008BD00000008014000BFFEE710B500F000
:1009900045F80D480078012804D100F0C9F800F0AE
:1009A00079FA10E008480078022804D100F0C0F875
:1009B00000F0A8FA07E004480078032803D100F00B
:1009C000B7F800F0D7FA10BD1400002010B5114898
:1009D0000078012802D1FFF7E7FC1AE00D48007803
:1009E000022810D10C480078012803D00A4800786A
:1009F000032801D101F044F807480078022808D103
:100A0000FFF774FD05E003480078032801D101F0E9
:100A100097FA10BD140000202D0000201348007824
:100A2000012807D11249087012480078401E114968
:100A3000087019E010480078012807D10C490870A7
:100A40000C480078401C0B4908700DE009480078FC
:100A5000042803D101200749087005E00548007803
:100A600010B9032003490870704700001C000020E3
:100A70002B000020140000201B0000207047000005
:100A800070B5002100230F22C47804B3154C2468EC
:100A900004F4E064C4F5E064210AC1F10403CA402F
:100AA000447804FA03F184781440214309010E4C80
:100AB0000678A155047804F01F050124AC400578A0
:100AC0006D11AD0005F1E025C5F8004109E004789D
:100AD00004F01F050124AC40044D0678761145F85A
:100AE000264070BD0CED00E000E400E080E100E095
:100AF00002490143024A1160704700000000FA05F4
:100B00000CED00E070B500240EE00021204600F05E
:100B1000F4F8002504E0002000F0ACFE681CC5B22B
:100B2000802DF8DB601CC4B2082CEEDB70BD000029
:100B300010B505480078012804D10020024908704A
:100B4000FFF7E0FF10BD00002B00002008B50121D9
:100B5000082000F01BFF14208DF8030003208DF8FF
:100B600002004FF48050ADF8000069460A48FFF7D4
:100B700053FD4FF40050ADF8000069460648FFF7FA
:100B80004BFD012211030448FFF7DEFD0122510352
:100B90000148FFF7D9FD08BD000C014070B50546BE
:100BA000002415E08020204100EA05024FF40051A6
:100BB0000E48FFF7C9FD012211030C48FFF7C4FDE1
:100BC00000224FF480510948FFF7BEFD601CC4B2FB
:100BD000082CE7DB012211030448FFF7B5FD0022D2
:100BE0004FF480510148FFF7AFFD70BD000C01408C
:100BF00010B5012251030A48FFF7A6FD0122110397
:100C00000748FFF7A1FD00224FF400510448FFF709
:100C10009BFD00224FF480510148FFF795FD10BD68
:100C2000000C014010B500224FF400510648FFF7B8
:100C30008BFD012211030448FFF786FD01225103B9
:100C40000148FFF781FD10BD000C014070B5002484
:100C500006E0002500E06D1CB5F57A7FFBD3641C2F
:100C6000B4F57A7FF5D3FFF771FFAE2000F0F2FD07
:100C7000D52000F0EFFD802000F0ECFDA82000F072
:100C8000E9FD3F2000F0E6FDD32000F0E3FD002069
:100C900000F0E0FD402000F0DDFDA12000F0DAFDD5
:100CA000C82000F0D7FDDA2000F0D4FD122000F0BB
:100CB000D1FD812000F0CEFDCF2000F0CBFDD9206A
:100CC00000F0C8FDF12000F0C5FDDB2000F0C2FD02
:100CD000302000F0BFFDA42000F0BCFDA62000F0F5
:100CE000B9FD8D2000F0B6FD142000F0B3FDAF205B
:100CF00000F0B0FDFFF706FF70BD70B505460C466D
:100D000045F0B00000F0A6FD102141EA141000F0FB
:100D1000A1FD04F00F0000F09DFD70BD2DE9F04134
:100D200006460F46904614257A1E6A43D1B2721EBB
:100D30005206100EFFF7E1FF002409E008EB8801DE
:100D4000124A02EBC101085D00F094FD601CC4B2C0
:100D5000AC42F3DB7A1E6A43D1B2721E012303EB6D
:100D60004202D0B2FFF7C9FF00240AE008EB880175
:100D7000064A02EBC1016219885C00F07BFD601C31
:100D8000C4B2AC42F2DBBDE8F0810000D834000808
:100D90002DE9F04105460E461746721ED206110E89
:100DA0006A1E5206100EFFF7A8FF002409E0A7F103
:100DB0002001134A02EB0111085D00F05BFD601C8D
:100DC000C4B2082CF3DB721ED206110E6A1E012378
:100DD00003EB4202D0B2FFF790FF00240BE0A7F133
:100DE0002001074A02EB011204F10801505C00F0F7
:100DF00041FD601CC4B2082CF1DBBDE8F0810000AD
:100E0000E82E00082DE9F04107460E46154600245D
:100E100007E02A5D3019C1B23846FFF7B9FF601C00
:100E2000C4B2285D0028F4D1BDE8F08110B50022DD
:100E300002210120FFF772FF012203211046FFF774
:100E40006DFF022204210120FFF768FF0322052124
:100E50000120FFF763FF0C2202210846FFF75EFF27
:100E60000D2203210220FFF759FF0E220421022048
:100E7000FFF754FF0F2205210220FFF74FFF1A2230
:100E800001210420FFF74AFF1B2206210420FFF75F
:100E900045FF10BD10B51C2203210120FFF73EFFC6
:100EA0001D2204210120FFF739FF002202210846FC
:100EB000FFF734FF012203210220FFF72FFF022258
:100EC00004211046FFF72AFF032205210220FFF725
:100ED00025FF0AA201210420FFF794FF1822032115
:100EE0000420FFF71BFF192204210846FFF716FF15
:100EF00003A20E210420FFF785FF10BD3C3C00003B
:100F00003E3E000010B51C2203210120FFF706FF22
:100F10001D2204210120FFF701FF042202210846BF
:100F2000FFF7FCFE052203210220FFF7F7FE022255
:100F300004211046FFF7F2FE032205210220FFF7ED
:100F4000EDFE0AA201210420FFF75CFF1822032115
:100F50000420FFF7E3FE192204210846FFF7DEFE16
:100F600003A20E210420FFF74DFF10BD3C3C000002
:100F70003E3E000010B51C2203210120FFF7CEFEEB
:100F80001D2204210120FFF7C9FE33220221084659
:100F9000FFF7C4FE342203210220FFF7BFFE3522F3
:100FA00004210220FFF7BAFE362205210220FFF7B6
:100FB000B5FE0AA201210420FFF724FF1822032115
:100FC0000420FFF7ABFE192204210846FFF7A6FE16
:100FD00003A20E210420FFF715FF10BD3C3C0000CA
:100FE0003E3E000010B5042202210120FFF796FECC
:100FF000052203210120FFF791FE02220421012096
:10100000FFF78CFE032205210120FFF787FE252232
:1010100003210220FFF782FE2C2204210220FFF789
:101020007DFE0AA201210420FFF7ECFE0E2203211F
:101030000420FFF773FE0F2204210846FFF76EFE1F
:1010400003A20E210420FFF7DDFE10BD3C3C000092
:101050003E3E000010B5042202210120FFF75EFE93
:10106000052203210120FFF759FE0222042101205D
:10107000FFF754FE032205210120FFF74FFE2D222A
:1010800003210220FFF74AFE2E2204210220FFF74F
:1010900045FE0AA201210420FFF7B4FE0E2203211F
:1010A0000420FFF73BFE0F2204210846FFF736FE1F
:1010B00003A20E210420FFF7A5FE10BD3C3C00005A
:1010C0003E3E000010B5042202210120FFF726FE5B
:1010D000052203210120FFF721FE02220421012025
:1010E000FFF71CFE032205210120FFF717FE28222F
:1010F00003210220FFF712FE2C2204210220FFF719
:101100000DFE0AA201210420FFF77CFE0E2203211E
:101110000420FFF703FE0F2204210846FFF7FEFD1F
:1011200003A20E210420FFF76DFE10BD3C3C000021
:101130003E3E000010B5042202210120FFF7EEFD23
:10114000052203210120FFF7E9FD022204210120ED
:10115000FFF7E4FD032205210120FFF7DFFD0C224C
:1011600002210846FFF7DAFD0D2203210220FFF7D6
:10117000D5FD0E2204210220FFF7D0FD0F2205210C
:101180000220FFF7CBFD1A2201210420FFF7C6FD44
:10119000182203210420FFF7C1FD1922042108466B
:1011A000FFF7BCFD1B2206210420FFF7B7FD10BD91
:1011B00010B5042202210120FFF7B0FD0522032112
:1011C0000120FFF7ABFD022204210120FFF7A6FD5D
:1011D000032205210120FFF7A1FD2F22022108464D
:1011E000FFF79CFD2C2203210220FFF797FD2A2206
:1011F00004210220FFF792FD2B2205210220FFF798
:101200008DFD0AA201210420FFF7FCFD0E2203211F
:101210000420FFF783FD0F2204210846FFF77EFD1F
:1012200003A20E210420FFF7EDFD10BD3C3C0000A1
:101230003E3E000010B5042202210120FFF76EFDA2
:10124000052203210120FFF769FD0222042101206C
:10125000FFF764FD032205210120FFF75FFD242233
:1012600003210220FFF75AFD2C2204210220FFF760
:1012700055FD0AA201210420FFF7C4FD0E2203211F
:101280000420FFF74BFD0F2204210846FFF746FD1F
:1012900003A20E210420FFF7B5FD10BD3C3C000069
:1012A0003E3E000010B5042202210120FFF736FD6A
:1012B000052203210120FFF731FD02220421012034
:1012C000FFF72CFD032205210120FFF727FD272230
:1012D00003210220FFF722FD2C2204210220FFF728
:1012E0001DFD0AA201210420FFF78CFD0E2203211F
:1012F0000420FFF713FD0F2204210846FFF70EFD1F
:1013000003A20E210420FFF77DFD10BD3C3C000030
:101310003E3E000010B5042202210120FFF7FEFC32
:10132000052203210120FFF7F9FC022204210120FC
:10133000FFF7F4FC032205210120FFF7EFFC232235
:1013400003210220FFF7EAFC2C2204210220FFF7F0
:10135000E5FC0AA201210420FFF754FD0E2203211F
:101360000420FFF7DBFC0F2204210846FFF7D6FC20
:1013700003A20E210420FFF745FD10BD3C3C0000F8
:101380003E3E000010B5042202210120FFF7C6FCFA
:10139000052203210120FFF7C1FC022204210120C4
:1013A000FFF7BCFC032205210120FFF7B7FC29222F
:1013B00003210220FFF7B2FC2C2204210220FFF7B8
:1013C000ADFC0AA201210420FFF71CFD0E2203211F
:1013D0000420FFF7A3FC0F2204210846FFF79EFC20
:1013E00003A20E210420FFF70DFD10BD3C3C0000C0
:1013F0003E3E000010B5332202210120FFF78EFC93
:10140000342203210120FFF789FC35220421012029
:10141000FFF784FC362205210120FFF77FFC08221C
:1014200002210846FFF77AFC092203210220FFF778
:1014300075FC2D2204210220FFF770FC2E220521CD
:101440000220FFF76BFC182203210420FFF766FC43
:10145000192204210846FFF761FC03A20E21042093
:10146000FFF7D0FC10BD00003E3E000010B5332257
:1014700002210120FFF752FC342203210120FFF753
:101480004DFC352204210120FFF748FC36220521BE
:101490000120FFF743FC082202210846FFF73EFC2B
:1014A000092203210220FFF739FC32220421022005
:1014B000FFF734FC202205210220FFF72FFC182221
:1014C00003210420FFF72AFC192204210846FFF714
:1014D00025FC03A20E210420FFF794FC10BD0000A0
:1014E0003E3E000010B53A2201210220FFF716FC13
:1014F000412202210846FFF711FC4222032102206B
:10150000FFF70CFC3B2204210220FFF707FC3C22E2
:1015100005210220FFF702FC10BD10B53A2201217F
:101520000220FFF7FBFB412202210846FFF7F6FBF2
:10153000422203210220FFF7F1FB3B22042102207B
:10154000FFF7ECFB3C2205210220FFF7E7FB10BD73
:1015500010B5302202210846FFF7E0FB31220321BB
:101560000220FFF7DBFB3B2204210220FFF7D6FB22
:101570003C2205210220FFF7D1FB10BD10B530221F
:1015800002210846FFF7CAFB312203210220FFF7A0
:10159000C5FB3B2204210220FFF7C0FB3C220521B2
:1015A0000220FFF7BBFB10BD10B53922022108460F
:1015B000FFF7B4FB3A2203210220FFF7AFFB2D22F5
:1015C00004210220FFF7AAFB2E2205210220FFF7AB
:1015D000A5FB10BD10B5392202210846FFF79EFB7E
:1015E0003A2203210220FFF799FB32220421022034
:1015F000FFF794FB122205210220FFF78FFB10BD9D
:1016000010B5302202210846FFF788FB3122032162
:101610000220FFF783FB3B2204210220FFF77EFB21
:101620003C2205210220FFF779FB10BD10B53022C6
:1016300002210846FFF772FB312203210220FFF747
:101640006DFB3B2204210220FFF768FB3C220521B1
:101650000220FFF763FB10BD10B5302202210846BF
:10166000FFF75CFB312203210220FFF757FB3B22EF
:1016700004210220FFF752FB3C2205210220FFF744
:101680004DFB10BD10B5302202210846FFF746FB86
:10169000312203210220FFF741FB3B2204210220DB
:1016A000FFF73CFB3C2205210220FFF737FB10BD72
:1016B00010B5392202210846FFF730FB3A220321F8
:1016C0000220FFF72BFB2D2204210220FFF726FB2F
:1016D0002E2205210220FFF721FB10BD10B5392273
:1016E00002210846FFF71AFB3A2203210220FFF7E6
:1016F00015FB322204210220FFF710FB12220521E4
:101700000220FFF70BFB10BD10B541220221084655
:10171000FFF704FB422203210220FFF7FFFA3B22DE
:1017200004210220FFF7FAFA3C2205210220FFF7EC
:10173000F5FA10BD10B5412202210846FFF7EEFA76
:10174000422203210220FFF7E9FA3B220421022072
:10175000FFF7E4FA3C2205210220FFF7DFFA10BD73
:1017600010B5412202210846FFF7D8FA4222032190
:101770000220FFF7D3FA3B2204210220FFF7CEFA22
:101780003C2205210220FFF7C9FA10BD10B5412205
:1017900002210846FFF7C2FA422203210220FFF786
:1017A000BDFA3B2204210220FFF7B8FA3C220521B2
:1017B0000220FFF7B3FA10BD10B5412202210846FE
:1017C000FFF7ACFA422203210220FFF7A7FA3B22DF
:1017D00004210220FFF7A2FA3C2205210220FFF794
:1017E0009DFA10BD10B5412202210846FFF796FA76
:1017F000422203210220FFF791FA3B22042102201A
:10180000FFF78CFA3C2205210220FFF787FA10BD72
:1018100010B5412202210846FFF780FA4222032137
:101820000220FFF77BFA3B2204210220FFF776FA21
:101830003C2205210220FFF771FA10BD10B53722B6
:1018400003210220FFF76AFA382204210220FFF761
:1018500065FA10BD10B50446FFF7CAF97820FFF706
:101860009DF90020FFF79AF92046FFF797F9FFF757
:10187000D9F910BD10B50446FFF7BAF97820FFF783
:101880008DF94020FFF78AF92046FFF787F9FFF727
:10189000C9F910BD00B587B00121084600F066F80F
:1018A0004FF0804000F08BFE0020ADF81600ADF840
:1018B00012006320ADF8140040F2CF20ADF8100004
:1018C00000208DF8180004A94FF0804000F0BEFF02
:1018D000684600F0A7FF7020ADF800000020ADF8CA
:1018E00008000120ADF802000020ADF806006946AE
:1018F0004FF0804000F06AFE69464FF0804000F0F3
:10190000B1FE69464FF0804000F0FEFE69464FF0A0
:10191000804000F049FF00F0C9FAFFF71BF80121F1
:10192000880700F026FE07B000BD10B5044621462A
:101930004FF0804000F080FF10BD10B504462146F6
:101940004FF0804000F07AFF10BD10B504462146EC
:101950004FF0804000F074FF10BD10B504462146E2
:101960004FF0804000F06EFF10BD704729B1064A6D
:10197000D2690243044BDA6104E0034AD26982432C
:10198000014BDA61704700000010024029B1064A9D
:1019900092690243044B9A6104E0034A92698243CC
:1019A000014B9A61704700000010024030B50021E1
:1019B0000022002400232D4D6D6805F00C0121B19B
:1019C000042905D0082923D105E0294D056022E02E
:1019D000274D05601FE0254D6D6805F47012234DFD
:1019E0006D6805F48034022505EB92421CB9214D47
:1019F000554305600BE01D4D6D6805F400351DB1C4
:101A00001C4D5543056002E0194D5543056002E049
:101A1000174D056000BF00BF144D6D6805F0F00163
:101A20000909154D6B5C0568DD4045600F4D6D681B
:101A300005F4E061090A104D6B5C4568DD40856086
:101A40000A4D6D6805F46051C90A0B4D6B5C456821
:101A5000DD40C560054D6D6805F44041890B074DBB
:101A60006B5CC568B5FBF3F5056130BD0010024045
:101A700000127A0000093D00000000201000002044
:101A800010B500F02DFA42480078012809D1FFF77F
:101A90004FF840480178012000F07EF8FFF788FBFE
:101AA00074E03B480078022813D11E220221084628
:101AB000FFF734F91E2205210220FFF72FF9FFF767
:101AC00037F834480178022000F066F8FFF722FC6E
:101AD0005CE02F480078032809D1FFF729F82D484A
:101AE0000178032000F058F8FFF7A4FB4EE02848E7
:101AF0000078042809D1FFF71BF826480178042054
:101B000000F04AF8FFF76EFA40E021480078052817
:101B100009D1FFF70DF81F480178052000F03CF8C7
:101B2000FFF730FC32E01A480078062809D1FEF7AA
:101B3000FFFF18480178062000F02EF8FFF7B2FBEF
:101B400024E013480078072809D1FEF7F1FF114877
:101B50000178072000F020F8FFF7B4FA16E00C48EF
:101B60000078082812D11E2202210846FFF7D6F875
:101B70001E2205210220FFF7D1F8FEF7D9FF054804
:101B80000178082000F008F8FFF764FA10BD0000A3
:101B9000200000202100002070B505460C46092DCC
:101BA0007ED2DFE805F07D05FDFCFBFAF9F8F700D1
:101BB00000F0D4FC4CB90020FFF7BFFE0020FFF777
:101BC000C4FE0020FFF7C9FE19E1B448007800BB4D
:101BD000B3480078012804D10020B2490870B04908
:101BE0000870B0480078401CAE490870084600787C
:101BF000FFF7B3FE00BFAC4800780028FBD0A9482F
:101C00000078A042E0DB0120A4490870A4490870D4
:101C1000F5E0A2480078012821D1A14800780128E8
:101C200004D100209F4908709D4908709D480078A4
:101C3000401C9C49087008460078FFF786FE00BFEC
:101C4000994800780028FBD096480078A042BBDB7A
:101C5000022092490870012091490870CFE08F4816
:101C60000078022824D18E480078012804D1002071
:101C70008C4908708A4908708A480078401C894954
:101C800008700978611AC8B2FFF767FE00BF86487E
:101C900000780028FBD083480078A04294DB00E065
:101CA000F8E003207D49087001207D490870A6E016
:101CB0007A480078032821D179480078012804D196
:101CC0000020784908707649087076480078401CF2
:101CD0007449087008460078FFF72FFE00BF72486D
:101CE00000780028FBD06F480078A04290DB0420E9
:101CF0006A49087001206A49087080E067480078E6
:101D0000042822D166480078012804D100206549C2
:101D100008706349087063480078401C6149087086
:101D20000978611AC8B2FFF710FE00BF5E4800785C
:101D30000028FBD05B480078A04260DB05205749B3
:101D4000087001205649087059E054480078052869
:101D500029D153480078012804D100205149087046
:101D60004F4908704F480078401C4E49087008469B
:101D70000078FFF7F2FD00BF4B4800780028FBD049
:101D800048480078A0423ADB062044490870012008
:101D9000434906E072E067E05CE051E046E03BE08A
:101DA0002EE008702BE03D480078062827D13C48FB
:101DB0000078012804D100203A4908703849087099
:101DC00038480078401C374908700978611AC8B251
:101DD000FFF7C3FD33490978611AC8B2FFF7ADFDBB
:101DE00000BF314800780028FBD02E480078A04280
:101DF00005DB00202949087001202949087049E0C5
:101E000000F042FB2046FFF798FD0020FFF79DFD04
:101E10000020FFF7A2FD3DE00020FFF78EFD00202F
:101E2000FFF79BFD2046FFF790FD33E00020FFF712
:101E30008CFD0020FFF781FD2046FFF78EFD29E095
:101E40000020FFF78AFD2046FFF77FFD2046FFF7C1
:101E500074FD1FE02046FFF780FD0020FFF775FDB1
:101E60002046FFF76AFD15E02046FFF776FD204685
:101E7000FFF76BFD0020FFF760FD0BE000F004FBB7
:101E80000020FFF76AFD0020FFF75FFD0020FFF74D
:101E900054FD00BF00BF204670BD0000230000209D
:101EA00022000020240000201800002008B5012195
:101EB0000420FFF76BFD18208DF803000E20ADF80D
:101EC000000003208DF8020069460448FEF7A4FBD9
:101ED0000E210248FEF736FC08BD00000008014054
:101EE00011480078012805D110480078401C0F499E
:101EF000087017E00E480078012805D10B480078DB
:101F0000401E0A4908700DE008480078092803D1EE
:101F100001200649087005E00448007810B908203F
:101F200002490870704700001B00002020000020BC
:101F30001C000020014800787047000020000020AD
:101F400010B500F01BF80B480078012809D1FEF706
:101F5000EFFDFEF7F5FC08480078012801D0FFF7F7
:101F600085FA04480078022803D1FEF7E1FDFFF767
:101F700041FA10BD170000201D0000200C48007819
:101F8000012805D10B480078401C0A4908700DE073
:101F900008480078032803D101200649087005E0AD
:101FA0000448007810B90220024908707047000008
:101FB0001B000020170000207047000000B587B00C
:101FC00001218803FFF7E2FC01210420FFF7DEFC7A
:101FD00018208DF81B004FF40070ADF81800032096
:101FE0008DF81A0006A91F48FEF716FB48208DF849
:101FF0001B004FF48060ADF8180003208DF81A0024
:1020000006A91848FEF708FB4FF41650029000206E
:10201000ADF814000C20ADF812000020ADF810004F
:10202000ADF80E00ADF80C0002A90F4800F00CFD51
:10203000012240F225510C4800F0E0FC25208DF8EB
:10204000040001208DF807008DF805008DF80600CA
:1020500001A8FEF715FD0121034800F0B6FC07B00A
:1020600000BD0000000801400038014010B57B4869
:102070000078012876D17AA17B48FEF7A5F830B91F
:1020800001207A490870002079490870E2E079A1BE
:102090007548FEF799F828B9012074490870744909
:1020A0000870D7E075A17048FEF78EF830B90120AE
:1020B0006E49087002206E490870CBE071A16A4831
:1020C000FEF782F830B9012068490870032068499A
:1020D0000870BFE06DA16448FEF776F830B90120C2
:1020E00062490870042062490870B3E069A15E4843
:1020F000FEF76AF830B901205C49087005205C4998
:102100000870A7E065A15848FEF75EF830B90120D5
:10211000564908700620564908709BE061A1524854
:10212000FEF752F830B90120504908700720504995
:1021300008708FE05EA14C48FEF746F830B90120E8
:102140004A49087008204A49087083E05BA1464864
:10215000FEF73AF838B9012044490870092044498B
:10216000087077E079E058A13F48FEF72DF830B9C4
:1021700001203E4908700A203D4908706AE056A1D6
:102180003948FEF721F830B90120384908700B2092
:10219000374908705EE052A13348FEF715F830B9B0
:1021A0000120324908700C203149087052E04FA1DB
:1021B0002D48FEF709F830B901202C4908700D2090
:1021C0002B49087046E04CA12748FDF7FDFF30B9C8
:1021D0000120264908700E20254908703AE049A1DF
:1021E0002148FDF7F1FF30B90120204908700F2088
:1021F0001F4908702EE046A11B48FDF7E5FF30B9E6
:1022000001201A49087010201949087022E043A1E2
:102210001548FDF7D9FF30B9012014490870112085
:102220001349087016E041A10F48FDF7CDFF30B902
:1022300001200E49087012200D4908700AE03DA1E6
:102240000948FDF7C1FF28B901200849087013208B
:102250000749087000200149087010BD27000020C0
:1022600057656C636F6D6500300000202B00002007
:10227000280000204C45445F4F4E00004C45445F11
:102280004F4646004C45445F557000004C45445F46
:102290004C4F57004C45445F4F6E65004C45445FC2
:1022A00054776F004C45445F5468726565000000C8
:1022B0004C45445F466F7572000000004D6F6465C9
:1022C0005F5247425F4F4E004D6F64655F52474219
:1022D0005F4F4646000000005247425F526564006F
:1022E0005247425F477265656E0000005247425F89
:1022F000426C7565000000005247425F59656C6C86
:102300006F7700005247425F507572706C65000035
:102310005247425F4379616E000000005247425FBE
:102320004772616469656E7400000000416C6C5F07
:102330004F4E0000416C6C5F4F46460010B500F0F8
:1023400001F810BD0CB500200190009033480068E2
:1023500040F480303149086000BF3048006800F424
:10236000003000900198401C0190009818B9019825
:10237000B0F5A06FF1D12948006800F4003010B129
:102380000120009001E0002000900098012843D136
:102390002348006840F010002149086008460068A2
:1023A00020F0030008600846006840F00200086062
:1023B0001A4840681949486008464068486008461D
:1023C000406840F4806048600846406820F47C1013
:1023D00048600846406840F4E810486008460068D5
:1023E00040F08070086000BF0C48006800F000708A
:1023F0000028F9D00948406820F0030007494860E8
:102400000846406840F00200486000BF034840684A
:1024100000F00C000828F9D10CBD000000100240AB
:10242000002002407047000010B51348006840F0DB
:1024300001001149086008464068104908400E49EB
:102440004860084600680E4908400B490860084685
:10245000006820F4802008600846406820F4FE00F0
:1024600048604FF41F008860FFF768FF4FF000607E
:102470000449086010BD0000001002400000FFF891
:10248000FFFFF6FE08ED00E010B50021014800F066
:1024900070F810BD0004004010B50121114800F093
:1024A00074F801280ED110480078401C0E490870BD
:1024B0000E480078401C0D4908700121094800F0C1
:1024C00055F80EE009480078022803D1002007499A
:1024D000087006E0044800780A2802D1002002496A
:1024E000087010BD000400401A00002018000020F1
:1024F0001FB501210220FFF739FA174800F05FF8F5
:102500000020ADF80A00ADF8060042F20F70ADF8F9
:10251000080040F2CF20ADF8040000208DF80C0038
:1025200001A90D4800F092F9012211460A4800F075
:102530003DF84FF4A060FEF7DBFA1D208DF8000097
:1025400001208DF803008DF801008DF80200684627
:10255000FEF796FA1FBD00000004004010B50121EF
:10256000014800F006F810BD00040040CA43028292
:10257000704721B1028842F00102028004E0028823
:102580004FF6FE731A400280704730B502460020B5
:1025900000230024158A05EA0103958905EA010450
:1025A00013B10CB1012000E0002030BD1AB18389C5
:1025B0000B43838102E083898B43838170470189C8
:1025C0004FF6F872114001817047000070B5002489
:1025D00000220023058C4FF6FE7635400584028CE0
:1025E0008388048B4FF68F752C40B51E2C400D88C8
:1025F0002C43751E2A400D892A434D882A43144DC9
:10260000A8420BD0134DA84208D0134DA84205D0C4
:10261000124DA84202D0124DA84213D14FF6F775C1
:102620002A404D892A434FF6FB752A408D882A435C
:102630004FF6FF652B404FF6FF552B408D892B43FE
:10264000CD892B4383800483CD888586028470BD29
:10265000002C014000340140004001400044014092
:102660000048014070B5002400220023058C4FF67D
:10267000EF7635400584028C8388048B48F6FF751D
:102680002C404FF6FF452C400D884FF6FF7606EAAA
:1026900005252C434FF6DF752A400D8906EA0515FE
:1026A0002A434D8806EA05152A43154DA84202D053
:1026B000144DA8421DD14FF67F752A404D894FF623
:1026C000FF7606EA05152A434FF6BF752A408D8826
:1026D00006EA05152A434FF6FF352B404FF2FF75EA
:1026E0002B408D8906EA85052B43CD8906EA8505B1
:1026F0002B4383800483CD880587028470BD00004E
:10270000002C01400034014070B500240022002359
:10271000058C4FF6FF6635400584028C8388848BD8
:102720004FF68F752C404FF6FC752C400D882C43CE
:102730004FF6FF552A400D894FF6FF7606EA05252C
:102740002A434D8806EA05252A43154DA84202D0A2
:10275000144DA8421DD14FF2FF752A404D894FF606
:10276000FF7606EA05252A434FF6FF352A408D8875
:1027700006EA05252A434EF6FF752B404DF6FF75F8
:102780002B408D8906EA05152B43CD8906EA0515F0
:102790002B4383808483CD888587028470BD0000AD
:1027A000002C01400034014070B5002200230024B9
:1027B000058C4EF6FF7635400584038C8488828B29
:1027C00048F6FF752A404FF6FF452A400D884FF620
:1027D000FF7606EA05252A434DF6FF752B400D8945
:1027E00006EA05352B434D8806EA05352B430B4D8C
:1027F000A84202D00A4DA84208D14BF6FF752C40E2
:102800008D894FF6FF7606EA85152C4384808283F6
:10281000CD88A0F84050038470BD0000002C01401A
:10282000003401400021018041808180C18001810C
:1028300041818181C18170478186704701877047DE
:1028400081877047A0F8401070470000002202887E
:102850001D4B98420ED01D4B98420BD0B0F1804FCB
:1028600008D01B4B984205D01A4B984202D01A4B05
:10287000984204D14FF68F731A404B881A43174B76
:10288000984207D0164B984204D04FF6FF431A40A7
:10289000CB881A4302808B8883850B8803850A4B7B
:1028A00098420BD0094B984208D00E4B984205D065
:1028B0000D4B984202D00D4B984201D10B7A038602
:1028C0000123838270470000002C01400034014046
:1028D0000004004000080040000C004000100040D0
:1028E0000014004000400140004401400048014005
:1028F00010B52021264800F074F8012841D1244861
:1029000000F00EF9234908702348007868B908469A
:102910000078402835D12148007890BB01201E491D
:10292000087000201E4908702BE01B480078012821
:1029300013D1184800780D2803D1022016490870D9
:102940001FE0144800781749154A12788854144833
:102950000078401C1249087013E00F4800780228E4
:102960000FD10C4800780A280BD100200A490870C2
:102970000C490B4A127888540120084908700A490A
:10298000087040F22551024800F010F810BD000018
:1029900000380140260000202900002027000020E8
:1029A0002A000020300000202500002010B5002261
:1029B000002340F66A14A14200D100BF0A1201248C
:1029C0009440A3B2DC43048010BD21B1828942F45B
:1029D0000052828104E082894DF6FF731A408281A1
:1029E000704702460020B1F5007F00D100BF138878
:1029F0000B400BB1012000E000207047F0B503460A
:102A0000002400260025002040F66A17B94200D1B4
:102A100000BF1846C1F3421401F01F06012707FA50
:102A200006F5012C01D10C3004E0022C01D110304C
:102A300000E014301AB107682F43076002E007680E
:102A4000AF430760F0BD00002DE9F04786B00546B2
:102A50000E460024A24600BFA1460027B08900B15F
:102A600000BF2F462C8A4CF6FF700440F0880443C8
:102A70002C82AC894EF6F3100440B08831890843AB
:102A8000718908430443AC81AC8A4FF6FF4004408F
:102A9000B0890443AC8201A8FEF788FF1F48874233
:102AA00002D1DDF810A001E0DDF80CA0A88900F447
:102AB000004040B10AEBCA0000EB0A10316849003F
:102AC000B0FBF1F807E00AEBCA0000EB0A1031682E
:102AD0008900B0FBF1F86420B8FBF0F00401200994
:102AE000642101FB1089A88900F4004040B1322024
:102AF00000EBC900B0FBF1F000F00700044308E070
:102B0000322000EB09106421B0FBF1F000F00F005F
:102B100004432C8106B0BDE8F08700000038014076
:102B200001468888C0F30800704700BFFEE7000038
:102B300010B5FFF79BFA0120AB490870AB4800784D
:102B400030B9FDF7F5FFFDF7E9FBFEF777FE4AE147
:102B5000A648007801280CD1FDF7EAFFFEF73AFD00
:102B6000FDF7E8FB0120A24908700320A149087085
:102B700039E19E48007802280BD1FDF7D9FFFEF716
:102B800013FDFDF7D7FB012099490870994908709A
:102B900029E19648007803280ED1FDF7C9FFFDF71B
:102BA000C9FBFEF76FFD012091490870914800783C
:102BB000401C9049087016E18C48007804280ED11A
:102BC000FDF7B6FFFDF7B6FBFEF7D8FC01208849FC
:102BD000087088480078401E8649087003E18348E1
:102BE000007805280CD1FDF7A3FFFDF7A3FBFEF746
:102BF00007FD01207E49087002207E490870F2E03E
:102C00007A48007806280CD1FDF792FFFDF792FB79
:102C1000FEF722FD012076490870032075490870EF
:102C2000E1E07248007807280CD1FDF781FFFDF73D
:102C300081FBFEF7FBFC01206D49087004206D4903
:102C40000870D0E06948007808280CD1FDF770FFC3
:102C5000FDF770FBFEF77CFC01206549087005203C
:102C600064490870BFE061480078092809D1FDF780
:102C70005FFFFDF75FFBFEF731FD02205C49087046
:102C8000B1E05A4800780A280CD1FDF751FFFDF752
:102C900051FBFEF70DFD02205549087008205649EA
:102CA0000870A0E0514800780B280BD1FDF740FFD9
:102CB000FDF740FBFEF796FD02204D4908704E4996
:102CC000087090E0494800780C280CD1FDF730FFDF
:102CD000FDF730FBFEF75AFD02204549087003203E
:102CE000454908707FE0414800780D280CD1FDF778
:102CF0001FFFFDF71FFBFEF707FD02203C49087090
:102D000004203D4908706EE0384800780E280CD148
:102D1000FDF70EFFFDF70EFBFEF77AFD02203449AA
:102D200008700520344908705DE0304800780F28AD
:102D30000CD1FDF7FDFEFDF7FDFAFEF73DFD02208B
:102D40002B49087006202C4908704CE02748007871
:102D500010280CD1FDF7ECFEFDF7ECFAFEF7EAFCCB
:102D60000220234908700720234908703BE01F48D0
:102D7000007811280CD1FDF7DBFEFEF7F1FCFDF722
:102D8000D9FA02201A49087001201B4908702AE06C
:102D900016480078122811D1FDF7CAFEFEF7BDFBD8
:102DA000FDF7C8FA032013490870FDF7FDFA01206A
:102DB0001149087002200E49087014E00B48007891
:102DC000132810D1FDF7B4FEFEF78CFBFDF7B2FA25
:102DD000012008490870FDF7E7FA08200649087045
:102DE00002200349087010BD2D000020280000209B
:102DF000140000201F00002020000020FFF7DEF854
:102E0000FDF724FFFEF746FDFDF7B8FCFDF75CFA81
:102E1000FFF76EFB002202210120FDF77FFF012258
:102E200003211046FDF77AFF022204210120FDF75D
:102E300075FF032205210120FDF770FF0C220221FE
:102E40000846FDF76BFF0D2203210220FDF766FF08
:102E50000E2204210220FDF761FF0F22052102202E
:102E6000FDF75CFF1BA207210320FDF7CBFF1A2211
:102E700001210420FDF752FF1B2206210420FDF74B
:102E80004DFF25E0FDF768FCFDF75AFD124800787C
:102E900001280ED1FFF74CFE4FF47A70FDF761FA6E
:102EA00000200D4908700D49087001200C49087078
:102EB0000EE00A480078012802D1FDF775FA07E014
:102EC0000848007810B9FDF761FD01E0FDF77EFDCF
:102ED000D8E7000035302500250000202C00002018
:102EE0002B0000202D00002000000000000000004A
:102EF0000000000000000000000000F800000000DA
:102F0000000000333000000000100C06100C06001A
:102F1000000000000000000040C07840C078400081
:102F2000043F04043F040400007088FC08300000E3
:102F3000001820FF211E0000F008F000E01800003B
:102F400000211C031E211E0000F0088870000000F4
:102F50001E2123241927211010160E000000000046
:102F60000000000000000000000000E01804020063
:102F7000000000071820400000020418E0000000D4
:102F80000040201807000000404080F080404000D2
:102F90000202010F01020200000000F00000000028
:102FA0000101011F010101000000000000000000FC
:102FB00080B0700000000000000000000000000071
:102FC00000010101010101010000000000000000FA
:102FD0000030300000000000000000008060180495
:102FE000006018060100000000E010080810E00072
:102FF000000F102020100F00001010F8000000003B
:103000000020203F20200000007008080888700081
:103010000030282422213000003008888848300001
:103020000018202020110E000000C02010F8000021
:1030300000070424243F240000F8088888080800BA
:103040000019212020110E0000E0108888180000CF
:10305000000F112020110E0000380808C8380800A1
:103060000000003F00000000007088080888700021
:10307000001C222121221C0000E010080810E000A2
:103080000000312222110F00000000C0C00000002B
:103090000000003030000000000000800000000050
:1030A0000000806000000000000080402010080048
:1030B0000001020408102000404040404040400011
:1030C00004040404040404000008102040800000EC
:1030D0000020100804020100007048080808F000F1
:1030E0000000003036010000C030C828E810E000C1
:1030F0000718272423140B000000C038E00000004C
:10310000203C23020227382008F8888888700000B5
:10311000203F202020110E00C03008080808380089
:10312000071820202010080008F808080810E00000
:10313000203F202020100F0008F88888E8081000A1
:10314000203F20202320180008F88888E808100075
:10315000203F200003000000C030080808380000AD
:1031600007182020221E020008F808000008F808AE
:10317000203F210101213F20000808F80808000035
:103180000020203F2020000000000808F808080068
:10319000C08080807F00000008F888C028180800E0
:1031A000203F20012638200008F808000000000019
:1031B000203F20202020300008F8F800F8F8080010
:1031C000203F003F003F200008F830C00008F8080A
:1031D000203F200007183F00E01008080810E0001A
:1031E0000F10202020100F0008F808080808F00031
:1031F000203F210101010000E01008080810E00054
:103200000F18242438504F0008F8888888887000E8
:10321000203F2000030C3020007088080808380088
:103220000038202121221C00180808F8080818007E
:103230000000203F2000000008F808000008F808FF
:10324000001F202020201F000878880000C83808B0
:10325000000007380E010000F80800F80008F80028
:10326000033C0700073C03000818688080681808C2
:1032700020302C03032C30200838C800C838080040
:103280000000203F2000000010080808C83808008F
:103290002038262120201800000000FE0202020033
:1032A0000000007F40404000000C30C000000000E3
:1032B000000000010638C00000020202FE0000000B
:1032C000004040407F0000000000040202020400B1
:1032D00000000000000000000000000000000000EE
:1032E00080808080808080800002020400000000D6
:1032F00000000000000000000000808080800000CE
:103300000019242222223F2008F8008080000000BB
:10331000003F112020110E0000000080808000007E
:10332000000E112020201100000000808088F8008D
:10333000000E112020103F200000808080800000BF
:10334000001F222222221300008080F08888881823
:103350000020203F2020000000008080808080002E
:10336000006B94949493600008F8008080800000C3
:10337000203F210000203F2000809898000000009E
:103380000020203F202000000000008098980000CE
:1033900000C08080807F000008F8000080808000EE
:1033A000203F24022D302000000808F80000000013
:1033B0000020203F202000008080808080808000CE
:1033C000203F20003F20003F808000808080000060
:1033D000203F210000203F200000808080800000EE
:1033E000001F202020201F0080800080800000001F
:1033F00080FFA12020110E0000000080808080004E
:10340000000E112020A0FF8080808000808080003E
:1034100020203F212000010000008080808080006B
:103420000033242424241900008080E080800000E0
:103430000000001F2020000080800000008080002D
:10344000001F202020103F2080808000008080808E
:1034500000010E300806010080800080008080801E
:103460000F300C030C300F00008080008080800043
:103470000020312E0E31200080808000008080806E
:1034800080818E701806010000808080808080001E
:103490000021302C2221300000000000807C02023C
:1034A00000000000003F404000000000FF0000005E
:1034B00000000000FF0000000002027C800000000D
:1034C0000040403F00000000000601010202040429
:1034D0000000000000000000001010901010FF100D
:1034E000101010F080000000000000000084422155
:1034F000180601004080403F000106000000000067
:10350000008040201806800007182040800000003E
:1035100000000000010020702826212020243860AF
:1035200000010100000000001010D0FF9014E4AF73
:10353000A4A4A4AFE404000000000000040300FF02
:1035400000894B2A1A0E1A2A4B88800000000000BE
:10355000101090909090901010FF10101116100005
:1035600000000000002060203F10101000030C102D
:103570002040F80000000000082423AA2A2AAA2AD2
:103580002A2A2AEA02020000000000000482453CC8
:103590000444847D0204000F3040F8000000000065
:1035A00000FE0212525252FE5252521202FE00000D
:1035B0000000000000FF40414141417F4149514F1F
:1035C00040FF0000000000001010D0FF9014E4AF96
:1035D000A4A4A4AFE404000000000000040300FF62
:1035E00000894B2A1A0E1A2A4B888000000000001E
:1035F000101090909090901010FF10101116100065
:1036000000000000002060203F10101000030C108C
:103610002040F80000000000100C4444444445C61B
:103620004444444444140C00000000008040201E28
:103630002040407F44444444444040000000000097
:1036400000FC848484FC001010101010FF10100087
:1036500000000000003F1010103F000001064080F5
:103660007F000000000000001010D0FF9014E4AFB5
:10367000A4A4A4AFE404000000000000040300FFC1
:1036800000894B2A1A0E1A2A4B888000000000007D
:10369000101090909090901010FF101011161000C4
:1036A00000000000002060203F10101000030C10EC
:1036B0002040F80000000000004042445840407F95
:1036C00040405048C6000000000000000040444454
:1036D0004444444444444444FF00000000000000CB
:1036E0000808E8292E28E80808C80C0BE808080094
:1036F000000000000000FF0949897F00000F4080A2
:103700007F0000000000000000040474545455566B
:1037100054545474040400000000000084834121C8
:103720001D05050505057D818185E300000000007C
:103730000000FC242424FC252624FC24242404004A
:103740000000000040308F80844C55252525554CC5
:103750008080800000000000100C4444444445C6B2
:103760004444444444140C00000000008040201EE7
:103770002040407F44444444444040000000000056
:1037800000FC848484FC001010101010FF10100046
:1037900000000000003F1010103F000001064080B4
:1037A0007F0000000000000080828282FE82828210
:1037B0008282FE8282828000000000000080403011
:1037C0000F0000000000FF000000000000000000EB
:1037D00000001011161010F010101413100000004B
:1037E000000000008181414121110D030D11214193
:1037F0004181810000000000804020908886808008
:1038000080838C1020408000000000000080402059
:103810001807004080403F0000000000000000004A
:103820002424A4FE232200C03800FF0008106000FA
:1038300000000000080601FF0106818040402710BB
:103840000C0300000000000000FC848484FC0010D5
:1038500010101010FF10100000000000003F1010AA
:10386000103F0000010640807F00000000000000C3
:1038700000F8010600F0121212F2020202FE00002D
:103880000000000000FF0000001F1111111F004088
:10389000807F0000000000000484E45C44C4201029
:1038A000E82724E4342CE0000000000002017F102F
:1038B000103F80601F09093F49897F000000000018
:1038C000100C4444444445C64444444444140C004D
:1038D000000000008040201E2040407F44444444BB
:1038E0004440400000000000101010FF1010F000D5
:1038F00000F8080808F80000000000008040300FC1
:1039000040807F00007F2020207F0000000000001A
:1039100000020CC000F80848484808FF08098A005F
:103920000000000002027F80403F001E925E2017D0
:103930003846F10000000000404042CC0040A09E0C
:103940008282829EA0202000000000000000003F34
:10395000908840432C1028464180800000000000E1
:10396000001715D55557557D555755D515170000D6
:10397000000000004040407F555555555555557F36
:103980004040400000000000000000000000000077
:103990000000000000000000000000000000000027
:1039A0000000000000000000000000000000000017
:1039B00000001011161010F0101014131000000069
:1039C000000000008181414121110D030D112141B1
:1039D000418181000000000080828282FE8282821A
:1039E0008282FE82828280000000000000804030DF
:1039F0000F0000000000FF000000000000000000B9
:103A0000804020908886808080838C1020408000B9
:103A100000000000008040201807004080403F0068
:103A200000000000000000002424A4FE232200C0A7
:103A30003800FF000810600000000000080601FFC9
:103A400001068180404027100C03000000000000A8
:103A50002030AC63201800040404FC0404040000BB
:103A600000000000226722121212404040407F40B6
:103A700040404000000000002030AC6330008092E5
:103A800092929292FE808000000000002267221233
:103A90001200221448847F04081422000000000051
:103AA0000404E4040FF40404F444CF444444040044
:103AB0000000000040407D44447D4445447C444532
:103AC0007C404000000000000000F808080C0A09D3
:103AD00008080808F8000000000000000000FF418E
:103AE0004141414141414141FF00000000000000CF
:103AF00020203E201F9454001F24A42422380000BC
:103B00000000000000804829094D8D7B0B09284CDE
:103B10009800000000000000404454545454547F66
:103B2000545454545444400000000000000000FF6E
:103B3000151515151555957F0000000000000000B3
:103B4000101012D2525F52F2525F52D21210100075
:103B5000000000000000009F5232121F1232529FDC
:103B6000000000000000000020C20C8008C8B8CF90
:103B7000888800FC44C442000000000004047E0168
:103B8000081808FF0484601F00FF00000000000008
:103B900004442414047C0506047C04142444040016
:103BA00000000000808081414325291129254341DF
:103BB00080808000000000002010E824272424E4F6
:103BC00024342C20E00000000000000000003F42F0
:103BD00042424243424242424340780000000000D9
:103BE00000001011161010F0101014131000000037
:103BF000000000008181414121110D030D1121417F
:103C0000418181000000000000F80122202222A250
:103C1000FA22222202FE00000000000000FF00083D
:103C2000040211201F000040807F000000000000FF
:103C300080804020504844C3444850204080800049
:103C400000000000004040444444447F4444444455
:103C500040400000000000004042CC0000FE829284
:103C600092FE929282FE00000000000000003F10D1
:103C7000887F001E1212125E807F0000000000008C
:103C8000044444445F44C44444445F44C4040400C2
:103C900000000000000000000000FF000008100805
:103CA0000700000000000000101010FF1090040436
:103CB0000404FC0404040400000000000444827FA7
:103CC0000100000040807F000000000000000000B4
:103CD000109453321E325210007E4242427E000047
:103CE00000000000000000FF49494949494949FFD7
:103CF000000000000000000008CC4A49484ACC18E7
:103D0000007F88888482E0000000000000FF12121B
:103D100052927F00007E88888482E00000000000CC
:103D2000101010FF109000FE9292929292FE0000EE
:103D3000000000000444827F0180423A4282FE92E9
:103D40009292820000000000F212FE12FE12F200B7
:103D500000BE2AEA2A3E000000000000FF4A49484F
:103D60004949FF004249497F49494000000000009D
:103D700020242424FE23222020FF20222CA0200007
:103D800000000000000848847F02414020130C140A
:103D90002241F80000000000080888C8380C0B0811
:103DA00008E808080808080000000000020100FFF9
:103DB00040414141417F41414141400000000000FC
:103DC000807000FF201004040404FC0404040400B8
:103DD00000000000806018070830000040807F006D
:103DE00000000000000000000000E2828282828267
:103DF000828282FE000000000000000000003F40C0
:103E000040404040404040404078000000000000FA
:103E10000000F8888888880808FF08090AC8080090
:103E20000000000080601F0010201F804021161835
:103E30002641F80000000000080808F808080810EB
:103E400010FF101010F00000000000001030101FD4
:103E5000088848300E014080403F0000000000000C
:103E6000404042CC00808888FF8888FF8888800096
:103E7000000000000040201F2040504C4340405FA5
:103E80004040400000000000000000000001E21C73
:103E9000E000000000000000000000008040201052
:103EA0000C03000000030C30408080000000000084
:103EB000404042CC0000FF4949C949497F80000089
:103EC000000000000040201F20405F484440414265
:103ED000455840000000000000007C40404040FF8A
:103EE00040404040FC00000000000000007C4040DA
:103EF0004040407F4040404040FC00000000000047
:103F0000404040FF2020200404FC040404FC000086
:103F1000000000000000001F0884422018074080B5
:103F2000403F000000000000101010FF902010E83B
:103F30002724E4342CE00000000000000242817FCE
:103F400000848447241C071C2447840000000000D0
:103F5000201008FC2310886704F40424548C00000B
:103F60000000000040300077808188B2848380E0C8
:103F700000116000000000001010F01F10F0008021
:103F80008282E2928A8680000000000040221508AA
:103F90001661000040807F0000000000000000006B
:103FA000008060F817087C4BCA6A5A4E48780000B7
:103FB00000000000010000FF004A4A2552897E04EB
:103FC0001A21400000000000106002CC8040201E3A
:103FD0000202023E404040000000000004047E0156
:103FE0008080834D5121514987808000000000006E
:103FF000404042CC0000F11610101814F3000000ED
:10400000000000000000003F9048211907013F41D7
:104010004140700000000000404042CC00002024DD
:104020002424FE2223222000000000000000007F44
:10403000201000FE4242434242FE00000000000009
:104040006040000800000020300000002801000847
:104050009040000830000020C8060000440100081D
:10406000000000000102030401020304060708091E
:104070000204060801000001000001000000000326
:1040800001320100000000000000000001000000FB
:04000005080000ED02
:00000001FF
