:100764003C473EBBB6D3ADCAB9D3C3003C473ED623
:10077400F7C8CBA3ACCED2CFC8CDCBCFC2C1CB00B0
:100784004057656C636F6D650D0A00404C45445FCE
:100794004F4E0D0A00404C45445F4F46460D0A003B
:1007A400404C45445F55700D0A00404C45445F4C35
:1007B4004F570D0A00404C45445F4F6E650D0A00CB
:1007C400404C45445F54776F0D0A00404C45445FEC
:1007D40054687265650D0A00404C45445F466F7568
:1007E400720D0A00404D6F64655F5247425F4F4E81
:1007F4000D0A00404D6F64655F5247425F4F4646A5
:100804000D0A00405247425F5265640D0A0040528F
:1008140047425F477265656E0D0A00405247425F6A
:10082400426C75650D0A00405247425F59656C6C15
:100834006F770D0A00405247425F507572706C65C5
:100844000D0A00405247425F4379616E0D0A004031
:100854005247425F4772616469656E740D0A0040D5
:10086400416C6C5F4F4E0D0A0040416C6C5F4F460B
:05087400460D0A000022
:06000E0001590001580039
:100B7D00E4F5467592FFF591120E8A120DEE120DE7
:100B8D0041120E1AE47859F67BFF7A077964120E3A
:100B9D0041C3E55794F4E556648094814012E4F521
:100BAD0056F557F558D2C27BFF7A077970120E4170
:100BBD007859E61460DB24F1601824DF60D324310A
:100BCD00702078597601120C54EF70C57859763132
:100BDD0080BF120006785BEFF6120440E47859F6F8
:080BED0080AFE47859F680A9FD
:100E8A00B2C2120ED0B2C2120ED0B2C2120ED0B27A
:0C0E9A00C2120ED0B2C2120ED0B2C222A0
:100DEE007580FFE4F59075A0FF75B0FF75C0FF53D9
:100DFE008E7F438901F58A758C28C28DD28CD2A93B
:0C0E0E00C2C3D289D2A8D2AF75C13D2268
:0A0EDD0000007F057E49DEFEDFFC09
:010EE70022E8
:080E66008F518E508D4F8C4E10
:100E6E00E4F552F553F554F555784E74FF120652CB
:0B0E7E00EC4D4E4F6005120EDD80EEC3
:010E89002246
:0C0ED0007F117ED07D1BDDFEDEFCDFFA12
:010EDC0022F3
:03000300020D8269
:100D8200C0E0C0F0C083C082C0D075D000C000C037
:100D920001C002C003C004C005C006C00712092377
:100DA200D007D006D005D004D003D002D001D000A5
:0B0DB200D0D0D082D083D0F0D0E0324F
:100440008F47EF7013755801F556F5577BFF7A0704
:100450007984120E41C2C222E5586401600302068B
:1004600028E54712067004FD01050B020519040575
:100470002714053515054316055117055F18056D39
:1004800019057B1A05891B05971C05A51D05B21EBC
:1004900005BF1F05CC2005D92105E62205F323065B
:1004A0000024060D25061A26061A27061A28061AFB
:1004B00029061A2A061A2B061A2C061A2D061A2E97
:1004C000061A2F061A30061A31061A32061A330691
:1004D0001A34061A35061A36061A37061A38061A54
:1004E00039061A3A061A3B061A3C061A3D061A3E07
:1004F000061A3F061A40061A4100000628E4F5567F
:10050000F5577BFF7A07798F020625E4F556F557F4
:100510007BFF7A077999020625E4F556F5577BFFAC
:100520007A0779A4020625E4F556F5577BFF7A078A
:1005300079AE020625E4F556F5577BFF7A0779A4D4
:10054000020625E4F556F5577BFF7A0779AE0206D9
:1005500025E4F556F5577BFF7A0779B9020625E4BD
:10056000F556F5577BFF7A0779C4020625E4F55660
:10057000F5577BFF7A0779CF020625E4F556F55744
:100580007BFF7A0779DC020625E4F556F5577BFFF9
:100590007A0779E8020625E4F556F5577BFF7A07D6
:1005A00079F7020625E4F556F5577BFF7A087907B7
:1005B0008073E4F556F5577BFF7A0879128066E47C
:1005C000F556F5577BFF7A08791F8059E4F556F503
:1005D000577BFF7A08792B804CE4F556F5577BFF63
:1005E0007A087939803FE4F556F5577BFF7A087928
:1005F000478032E4F556F5577BFF7A08795380251A
:10060000E4F556F5577BFF7A0879638018E4F556D0
:10061000F5577BFF7A08796D800BE4F556F5577B2B
:09062000FF7A087978120E4122DC
:03000B00020EA63C
:100EA600C0E0758A00758C2875C13DE558640170EF
:0C0EB600080557E55770020556D0E032E1
:100026007869616F20796900000000000000000017
:10003600000000006B61692064656E6700000000C7
:1000460000000000000000006775616E2064656EA8
:100056006700000000000000000000007469616F86
:10006600206C69616E67206469616E0000000000A3
:100076007469616F20616E206469616E0000000022
:10008600000000006C69616E67206475207A656EF9
:1000960067206461000000006C69616E672064750A
:1000A600206A69616E207869616F00006C69616E13
:1000B600672064752079692064616E67000000001E
:1000C6006C69616E672064752065722064616E6775
:1000D600000000006C69616E672064752073616EB4
:1000E6002064616E670000006C69616E672064754C
:1000F6002073692064616E67000000006461206BF4
:1001060061692066656E207765692064656E6700A3
:100116006775616E2062692066656E207765692065
:1001260064656E67686F6E67207365207869616FB6
:100136002067756F000000006C7620736520786973
:10014600616F2067756F0000000000006C616E2013
:100156007365207869616F2067756F000000000085
:100166006875616E67207365207869616F206775B1
:100176006F0000007A69207365207869616F2067D7
:10018600756F00000000000071696E6720736520BE
:100196007869616F2067756F000000006A69616E9B
:1001A600206269616E207869616F2067756F000053
:1001B6007175616E206275206461206B6169000053
:1001C600000000007175616E206275206775616EB2
:1001D600206269000000000000000000000000002E
:1001E6000000000000000000000000000000000009
:1001F60000000000000000000000000000000000F9
:1002060000000000000000000000000000000000E8
:1002160000000000000000000000000000000000D8
:100406000000000000000000000102041415161789
:1004160018191A1B1C1D1E1F2021222324252627DE
:1004260028292A2B2C2D2E2F3031323334353637CE
:0A04360038393A3B3C3D3E3F40415F
:100D4100D2B57F057E007D007C00120E66C2B57FA4
:100D5100057E007D007C00120E66D2B57F057E0007
:100D61007D007C00120E66C2A17F057E007D007CA5
:100D710000120E66D2A17F057E007D007C00020E6E
:010D8100660B
:1009C2007F06120EF37D357F17120EE87F0A7E0036
:1009D2007D007C00120E667F06120EF37D037F8976
:1009E200120EE87F057E007D007C00120E667D43BC
:1009F2007FCF120EE87F057E007D007C00120E661E
:100A02007D027FCB120EE87D0A7F11120EE8E4FD13
:100A12007F1E120EE87D3F7F19120EE87D487F1B74
:100A2200120EE87D1F7F1D120EE87F0A7E007D00F8
:100A32007C00120E667D047FCD120EE87F057E00DB
:100A42007D007C00120E66E4FD7FB9120EE87D4F38
:0C0A52007FCF120EE87DFF7F6F020EE8E0
:100BF5001209C2E4FD7FBD120EE87D487F17120E73
:100C0500E87F0A7E007D007C00120E667D807F3CB9
:100C1500120EE87D077F3E120EE87DFF7F38120E2B
:100C2500E87D077F3A120EE8E4FD7F40120EE87D6D
:100C3500087F42120EE8E4FD7F44120EE87D087F2E
:0F0C450046120EE87F017E007D007C00020E66E5
:10092300E4F545C2A87F2B120EF3785AA607E4FD1F
:100933007F29120EE8E4FD7F02120EE8785AE630B2
:10094300E4377FB2120EF3EF6421702D7FBF120ED6
:10095300F3EF643570237FBA120EF38F457E00D315
:10096300EF9400748094804010D3EF9404748094C7
:1009730080500678597610800478597611E4FD7F0B
:100983002B120EE8E4FD7F1C120EE8E4FD7F291212
:100993000EE8E4FD7F02120EE8E4FD7F2B120EE861
:1009A300E4FD7FBA120EE8E4FD7FBC120EE87D0180
:0E09B3007F08120EE8E4FD7F08120EE8D2A8BD
:0109C1002213
:100C5400E4F547F548F547C3E54794057480948067
:100C6400504012001C7F327E007D007C00120E6614
:100C7400120879EF700280117F0A7E007D007C00EB
:100C8400120E66120A5EEF7010120D417F327E0062
:100C94007D007C00120E66800575480180040547BE
:040CA40080B5AF4820
:010CA8002229
:100DBD00E4F54DF54CC3E54C940A74809480501EB7
:100DCD007FB2120EF3EF64217005754D01800F7F18
:100DDD000A7E007D007C00120E66054C80D7AF4D5B
:010DED0022E3
:03001C00020BF5DF
:100A5E00C2A87D257F35120EE87D097F1C120EE897
:100A6E007D207FBD120EE87D017F08120EE87F010A
:100A7E007E007D007C00120E66E4FD7F08120EE8FB
:100A8E007F017E007D007C00120E66120DBDEF70A0
:100A9E0002FF227D0B7F1C120EE87DFF7FB2120E2D
:100AAE00E87F017E007D007C00120E667D067F379A
:100ABE00120EE87F017E007D007C00120E667D0620
:100ACE007F37120EE87F057E007D007C00120E66D9
:100ADE007D107F29120EE8E4FD7FBD120EE8D2A82C
:030AEE007F012263
:10087900754A01E4F549C3E549943274809480408E
:1008890003020920120DBDEF7005F54A020920E5A2
:100899004990040E93FD7FC1120EE8E4FD7FC31257
:1008A9000EE87D047F08120EE87F017E007D007C42
:1008B90000120E66E4FD7F08120EE87F017E007DBE
:1008C900007C00120E66E4F54BC3E54B941474806A
:1008D9009480502975F014E549A42426F582E5F0A1
:1008E9003400F583E582254BF582E43583F583E40D
:1008F90093FD60097F05120EE8054B80CCAD4B7F57
:10090900B9120EE87DFF7FB2120EE87D047F37121F
:090919000EE8054902087FAF4A0F
:0109220022B2
:050006007FC5020EF3AE
:0B0EE800908100EFF0908000EDF02200
:0B0EF300908100EFF0908000E0FF22F3
:07001400021125800110001C
:100E1A00759850438920AE11AF12AB07AA06E4F9C0
:100E2A00F8FF7EE1FDFC120CFD1206428F8B8F8DBE
:070E3A00D28ED2ACD2AF2230
:0E0EC200C2ACC2998F993099FDC299D2AC2270
:100E41008B488A49894AAB48AA49A94A12062960AE
:100E510013054AE54A7002054914F9120629FF12E1
:050E61000EC280E22238
:03002300020CA923
:100CA900C0E0C0D075D008309845C298741325109B
:100CB900F8A6990510C3E510943174809480400317
:100CC900751000C3E5109403748094804021741357
:100CD9002510F8E664F8701774122510F8E664F820
:100CE900700D74112510F8E664F8700375C760D0AB
:040CF900D0D0E03245
:03000000020AF100
:0C0AF100787FE4F6D8FD75815B020B38BD
:10062900BB010689828A83E0225002E722BBFE02CF
:09063900E32289828A83E4932202
:100CFD00C2D5E830E70FB2D5E4C39BFBE49AFAE422
:100D0D0099F9E498F8EC30E717B2D5120D331206C5
:100D1D00D2E4C39BFBE49AFAE499F9E498F88003D2
:100D2D001206D230D50DE4C39FFFE49EFEE49DFD77
:040D3D00E49CFC2214
:0E064200C3E49FFFE49EFEE49DFDE49CFC22C9
:100650007401FF3395E0FEFDFC080808E6CF2FF695
:1006600018E6CE3EF618E6CD3DF618E6CC3CF6226E
:10067000D083D082F8E4937012740193700DA3A319
:1006800093F8740193F5828883E47374029368602D
:06069000EFA3A3A380DF2D
:100AFD00020B7DE493A3F8E493A34003F68001F287
:100B0D0008DFF48029E493A3F85407240CC8C333F9
:100B1D00C4540F4420C8834004F456800146F6DFC8
:100B2D00E4800B010204081020408090000EE47E4A
:100B3D00019360BCA3FF543F30E509541FFEE493BD
:100B4D00A360010ECF54C025E060A840B8E493A384
:100B5D00FAE493A3F8E493A3C8C582C8CAC583CAAF
:100B6D00F0A3C8C582C8CAC583CADFE9DEE780BE67
:01001B0000E4
:1006960075F008758200EF2FFFEE33FECD33CDCC1B
:1006A60033CCC58233C5829BED9AEC99E58298409E
:1006B6000CF582EE9BFEED9AFDEC99FC0FD5F0D67B
:1006C600E4CEFBE4CDFAE4CCF9A88222B800C1B9A5
:1006D6000059BA002DEC8BF084CFCECDFCE5F0CBE3
:1006E600F97818EF2FFFEE33FEED33FDEC33FCEB1C
:1006F60033FB10D703994004EB99FB0FD8E5E4F9D7
:10070600FA227818EF2FFFEE33FEED33FDEC33FCC3
:10071600C933C910D7059BE99A4007EC9BFCE99AB7
:10072600F90FD8E0E4C9FAE4CCFB2275F010EF2FFC
:10073600FFEE33FEED33FDCC33CCC833C810D707FC
:100746009BEC9AE899400AED9BFDEC9AFCE899F837
:0E0756000FD5F0DAE4CDFBE4CCFAE4C8F922CA
:00000001FF
